:100000000080001091180000C1180000C318000003
:10001000C5180000C7180000C91800000000000043
:10002000000000000000000000000000CB180000ED
:10003000CD18000000000000CF180000D11800000B
:10004000D3180000D3180000D3180000D318000004
:10005000D3180000D3180000D3180000D3180000F4
:10006000D3180000D3180000D3180000D3180000E4
:10007000D3180000D3180000D3180000D3180000D4
:10008000D3180000D3180000D3180000D3180000C4
:10009000D3180000D3180000D3180000D3180000B4
:1000A000D3180000D3180000D3180000D3180000A4
:1000B000D3180000D3180000D3180000D318000094
:1000C000D3180000D3180000D318000010B5054C59
:1000D000237833B9044B13B10448AFF300800123F4
:1000E000237010BD980100100000000074B30000E0
:1000F000084B10B51BB108480849AFF30080084809
:10010000036803B910BD074B002BFBD0BDE81040BE
:10011000184700BF0000000074B300009C010010ED
:100120009801001000000000154B002B08BF134B76
:100130009D46A3F5803A00218B460F461348144A8A
:10014000121A04F088FD0F4B002B00D098470E4B7D
:10015000002B00D098470020002104000D000D481E
:10016000002802D00C48AFF3008004F0D9FC200036
:10017000290001F051FB04F077F900BF00000800EE
:100180000080001000000000000000009801001036
:10019000A00A0010000000000000000070470000EE
:1001A00000487047B4A70000004870479CA70000B3
:1001B00010B50446024B036001F01EF8204610BD46
:1001C000F0A7000010B50446024B036001F014F8DC
:1001D000204610BDD8A7000010B50446FFF7E8FF81
:1001E000204603F01FF8204610BD10B50446FFF767
:1001F000E9FF204603F016F8204610BD10B504466E
:1002000003F010F8204610BD10B50446084600F073
:100210008EFF2369186010BD03691046196800F04D
:10022000C7BF10B50446084600F091FF2369186067
:1002300010BD03691046196800F0CABF30B50C4DF7
:1002400085B004AA012402F8040D23460094284630
:10025000D02102F0CDF9002300932846D02102AA34
:10026000234602F0DFF99DF8080005B030BD00BF5D
:100270001C0300101FB500238DF80C008DF80D1025
:100280000093D02103AA0223024802F0B1F905B07D
:100290005DF804FB1C030010F0B50D4689B0012386
:1002A000174608AA02F8140DD021009300240A482A
:1002B00004AE02F09DF92B4600940748D021324647
:1002C00002F0B0F92346AB4203DAF25CFA54013390
:1002D000F9E709B0F0BD00BF1C03001038B50446B3
:1002E0000D461822002104F0B6FC2046294602F0F3
:1002F00051FB204638BD000010B500216B20FFF7F0
:10030000B9FF224802F00EFC6B200121FFF7B2FF7B
:100310001A200321FFF7AEFF04211920FFF7AAFFDF
:100320001B20FFF78BFF04461B2004F01F01FFF783
:10033000A1FF04F0E7011B20FFF79CFF144B1B20DB
:10034000196844EAC101C9B2FFF794FF1C20FFF706
:1003500075FF04461C2004F01F01FFF78BFF04F01B
:10036000E7011C20FFF786FF0A4B1C20196844EAAE
:10037000C101C9B2FFF77EFF37202221FFF77AFFC4
:10038000BDE8104038200121FFF774BFCDCCCC3D33
:10039000E4050010000600102DE9F04F6B2087B037
:1003A0000F4680211646FFF765FF954802F0BAFB1D
:1003B0006B200121FFF75EFF00216C20FFF75AFF41
:1003C000904802F0AFFB38200021FFF753FF2320B5
:1003D0000021FFF74FFF6B200021FFF74BFF242088
:1003E0000021FFF747FF6A200021FFF743FF0C21A0
:1003F0006A20FFF73FFF844802F094FB1A20012196
:10040000FFF738FF19200021FFF734FF1B200021E0
:10041000FFF730FF1C200021FFF72CFF6A2040214E
:10042000FFF728FF78212320FFF724FF774802F009
:1004300079FB23200021FFF71DFF7220022103AA70
:10044000FFF72AFF9DF80C409DF80D304FF0000893
:1004500043EA04230C24B3FBF4F44546C446C146E6
:100460004346C246C3461FFA88F2A2423ED20C213E
:100470000DEB010274200193CDF800C0FFF70CFFD3
:100480009DF80C109DF80D20DDF800C042EA012215
:1004900012B29DF80E1091449DF80F20019B42EA84
:1004A000012212B29DF8101094449DF8112008F119
:1004B000010842EA012212B29DF8121015449DF87B
:1004C000132042EA012212B29DF8141093449DF8C1
:1004D000152042EA012212B292449DF816109DF8AE
:1004E000172042EA012212B21344BCE79BFBF4FB43
:1004F0009CFBF4F895FBF4F59AFBF4FA99FBF4F9FC
:1005000093FBF4F404239BFBF3F25242C2F3072162
:100510008DF80D209AFBF3F294FBF3F352425B4209
:100520001012002D8DF80E008DF80F204FF01300E3
:100530004FEA2322CCBFA5F5804505F580458DF80F
:1005400011308DF810208DF80C10FFF793FE9DF8F8
:100550000D101420FFF78EFE9DF80E101520FFF7EA
:1005600089FE9DF80F101620FFF784FE9DF81010ED
:100570001720FFF77FFE9DF811101820FFF77AFE75
:10058000584609F0AFFE224909F0B4FF38605046E2
:1005900009F0A8FE1E4909F0ADFF7860204609F079
:1005A000A1FE1B4909F0A6FF03AAB860022106209C
:1005B000FFF772FE03AA08200221FFF76DFE03AACF
:1005C00002210A20FFF768FE484609F08BFE4FF033
:1005D000625109F0DBFE3060404609F083FE4FF0C7
:1005E000625109F0D3FE7060284609F07BFE4FF09F
:1005F000625109F0CBFEB06007B0BDE8F08F00BFDC
:10060000CDCCCC3DCDCC4C3E8FC2753C0AD7A33D62
:1006100000000343000000002DE9F0431C2089B0D6
:100620000F46F021FFF726FEE0211B20FFF722FEF8
:100630004FF07A5002F076FA0D20FFF7FFFD0646E4
:100640000E20FFF7FBFD05460F20FFF7F7FD0446E0
:100650001020FFF7F3FDC0F3011040EAE600C0B23E
:100660004FEAE5094FEAE4088DF8000004F01F04A2
:1006700006F01F0605F01F0540B28DF805408DF805
:1006800001908DF802808DF803608DF8045009F018
:1006900029FE4FF07E5109F06FFD614909F02AFFF4
:1006A00009F0E0F902460B4653A1D1E9000102F03E
:1006B000DDFD53A3D3E9002309F028FA09F008FD72
:1006C0000290484609F00EFE4FF07E5109F054FDAD
:1006D000534909F00FFF09F0C5F902460B4646A140
:1006E000D1E9000102F0C2FD45A3D3E9002309F0DE
:1006F0000DFA09F0EDFC0390404609F0F3FD4FF0D0
:100700007E5109F039FD464909F0F4FE09F0AAF9D5
:1007100002460B4638A1D1E9000102F0A7FD38A33B
:10072000D3E9002309F0F2F909F0D2FC0490304635
:1007300009F0D8FD4FF07E5109F01EFD09F092F945
:1007400002460B4630A1D1E9000102F08FFD30A333
:10075000D3E9002309F0DAF909F0BAFC059028463C
:1007600009F0C0FD4FF07E5109F006FD09F07AF95D
:1007700002460B4624A1D1E9000102F077FD26A331
:10078000D3E9002309F0C2F909F0A2FC0690204643
:1007900009F0A8FD4FF07E5109F0EEFC09F062F976
:1007A00002460B4618A1D1E9000102F05FFD18A333
:1007B000D3E9002309F0AAF909F08AFC0024079084
:1007C00002AB53F824501DF8040009F08BFD2946B4
:1007D00009F0D2FC134909F0D9FD294609F08AFE37
:1007E000104909F0CBFC47F824000134062CE7D16E
:1007F00009B0BDE8F08300BF000000A0A5A505403A
:10080000000000608FC29540000000806ABCF03F8D
:10081000000000000096A940000000000096A9C05A
:100820000000F0410000C8422DE9F04F9C4E9D4C65
:10083000336972689C4D1A606268236985B01A60DA
:100840006A682B6999491A60994801F0B9FE00233A
:1008500064208DF8073002F071F97520FFF7EEFC87
:1008600068283746264669D1924C93482146FFF7BF
:10087000D3FE20684FF07E5109F026FF00285DD09E
:1008800060684FF07E5109F01FFF002856D0A06825
:100890004FF07E5109F018FF00284FD0E0684FF06C
:1008A0007E5109F011FF002848D020694FF07E5199
:1008B00009F00AFF002841D060694FF07E5109F02D
:1008C00003FF00283AD080216B20FFF7D3FC7B4840
:1008D00002F028F978487A497A4AFFF75DFD7648B0
:1008E000FFF70AFD784B1B68032B10D8DFE803F0F5
:1008F0000205080B4FF0625207E04FF0645204E02B
:100900004FF0665201E04FF06852704B1A60704B26
:100910001B68032B0CD8DFE803F0020406086D4ABD
:1009200004E06D4A02E06D4A00E06D4A6D4B1A60CA
:1009300001238DF807307268F3681A60FB687A68E3
:100940000A241A600A2002F0F9F8674800F046FB12
:10095000664B013C1860664800F040FB654B14F0A4
:10096000FF0418600AD16B694F4A19686B68194215
:1009700001D1D26800E0126913600A249DF80730A3
:10098000002BDFD03A20FFF759FCC307DAD53B2014
:10099000062102AAFFF780FC9DF808209DF8093087
:1009A000554E43EA022333809DF80A209DF80B3010
:1009B000062143EA022373809DF80C209DF80D3038
:1009C000432043EA0223B38002AAFFF765FC9DF8A7
:1009D0000B209DF80A909DF809309DF808A042EA86
:1009E00009299DF80C809DF80D2043EA0A2A434B03
:1009F00042EA0828A3F800A0A3F80290A3F8048014
:100A0000324B304FD3F800B0B6F9000009F06AFC61
:100A1000594609F0BBFC396809F0AEFB384B186049
:100A2000B6F9020009F05EFC594609F0AFFC79689E
:100A300009F0A2FB334B1860B6F9040009F052FC30
:100A4000594609F0A3FCB96809F096FB2E4B1C4EE1
:100A50001860244B0FFA8AF01F6809F043FC3946EE
:100A600009F094FC316809F087FB284B18600FFAF5
:100A700089F009F037FC394609F088FC716809F003
:100A80007BFB234B18600FFA88F009F02BFC3946EA
:100A900009F07CFCB16809F06FFB1E4B186051E750
:100AA0003C0700108C05001000030010801A06009F
:100AB0001C030010CC05001018030010CDCCCC3D59
:100AC000E80500102807001000060010FC020010C6
:100AD000E40500100000FA3B00007A3C0000FA3CFC
:100AE00000007A3DF805001008060010A00700106D
:100AF000C801001004060010340700106807001039
:100B0000C0070010F405001024030010A407001013
:100B1000280300102C03001010B50446064B40308B
:100B200003F1180240F8403C4C330260436001F08E
:100B3000CBFE204610BD00BF68AC0000A0F1400015
:100B4000FFF7EABFA0F14400FFF7E6BF10B5044687
:100B5000FFF7E2FF204610BD10B50446FFF7DCFFAB
:100B6000204602F05FFB204610BDA0F14000F3E7F5
:100B7000A0F14400F0E700002DE9F3416C4A6D4913
:100B80006D4801F00DFD6D4B6D491C686D4D2046A3
:100B900009F0FCFB6C4B6D4F186008F063FF62A31B
:100BA000D3E9002308F0B2FF09F092FA684B6949D3
:100BB0001860204609F0EAFB674B684C186008F0A3
:100BC00051FF59A3D3E9002308F0A0FF09F080FAF0
:100BD000634B64491860644A4FF4E133284600F0DF
:100BE0000DFA22462846614902F031FB3846604939
:100BF00000F04AFB5F4E604B604D3B613E60384603
:100C00005F4F2246294602F022FB38465D4900F03C
:100C10003BFB5D4B3E603B6138465C4F22462946BC
:100C200002F015FB38465A4900F02EFB594B3E6046
:100C30003B613846584F2246294602F008FB3846A9
:100C4000564900F021FB564B3E603B613846554FFC
:100C50002246294602F0FBFA3846534900F014FBBD
:100C6000524B3E603B613846514F2246294602F0C6
:100C7000EEFA38464F4900F007FB4F4B29464F4DDF
:100C8000224638463B613E6002F0E1FA28464C4974
:100C900000F0FAFA4B4F4C4B4C4E2B612F6028461C
:100CA0004B4D2246314602F0D2FA2846494900F01F
:100CB000EBFA494B3146494E2F6022464FF41C78DF
:100CC000002728462B6102F0C2FA454D4FF0FF3352
:100CD000CDF80080019730464249434A00F0FEF8C3
:100CE0003046424E2946224602F0B1FA4FF0FF3319
:100CF000CDF80080019730463D493E4A00F0EEF8BD
:100D000022462946304602F0A2FA3B493B48FFF70B
:100D1000E5FA3B493B48FFF7E1FA3B493B48FFF71F
:100D2000DDFA02B0BDE8F081AA4C58E87AB6EB3F94
:100D300001C0092000C009201C030010CC000010D5
:100D4000ABAAAA3E30030010A8070010B40100109F
:100D5000FC050010610BB63B84070010C8000010B2
:100D60009C07001002C0092003C009204D0B0000A1
:100D7000FCA70000D8A70000C0070010C5010000B4
:100D8000B805001004A80000F4050010E8020010E7
:100D90000CA80000240300107007001014A8000025
:100DA000A4070010AC0700101BA8000028030010C7
:100DB0008807001022A800002C0300105407001020
:100DC00029A80000F0A70000A0070010B101000052
:100DD000A40500102FA8000004060010C801001090
:100DE000110E000005C0092004C0092008060010EB
:100DF00012C0092011C0092032C009203C07001090
:100E000034C009208C05001035C0092000030010F3
:100E100010B50446B43001F01FFC04F15C0001F091
:100E20001BFC201D01F018FC204610BD00F0FAB993
:100E3000D0F81C310133C0F81C3170474A680B6888
:100E400012F0010F4FEA620218BF8158104418BF18
:100E5000CB58184738B50446043001F055FC054618
:100E600004F15C0001F050FC237840EA4500C4F82E
:100E70001401C3B9D4F81031032B01D158BB02E0DF
:100E80002BB9032827D1D4F81831013321E0022BE4
:100E900001D1012802E0012B1DD102281BD1D4F879
:100EA0001831013B15E0012B15D1D4F8102180EA4F
:100EB0000203032B0FD090420DD002F00102C0F3C9
:100EC000400393420CBF4FF0FF330123D4F81821A5
:100ED000D31AC4F81831C4F8100138BD2DE9F04711
:100EE000044616469946051D04F15C0828469DF8FF
:100EF000247001F0E7FB3146404601F0E3FB494630
:100F000004F1B40001F0DEFB089B0026C4F80C31AC
:100F1000C4F818612846C4F81C61277001F0F4FB7E
:100F20000546404601F0F0FBDFF8AC8040EA4500A2
:100F3000274D012104F1200A0A46C4F81401C4F81F
:100F40001001E4625046C4F830806663256400F006
:100F5000EFFD6464C4F84880E664A565504602214C
:100F6000012200F0E5FD012F1BD104F1780A504663
:100F700039463A46C4F88440C4F88880C4F88C6086
:100F8000C4F8985000F0D4FDC4F89C40C4F8A08088
:100F9000C4F8A460C4F8B050504602213A4600F0AC
:100FA000C7FDB9F1FF3F0FD00A4B0121C4F8E03073
:100FB0000023C4F8DC40C4F8E430C4F8F05004F175
:100FC000D0000A4600F0B4FD2046BDE8F08700BF1F
:100FD0003D0E0000310E0000550E0000D0F8180143
:100FE00070474A680B6812F0010F4FEA620218BF9F
:100FF0008158104418BFCB581847000038B5044634
:101000001D46002301F0A4FB0A4B012223610A4B79
:10101000002184F85820E46061612362201D01F002
:101020007FF8B5F5165F03D02046294601F0E0FBB6
:10103000204638BD51100000E30F000090F85830F2
:10104000014623B1593001F2591100F071B97047CE
:1010500038B5012380F8593290F8583004468BB1E6
:1010600000F1400504F159014FF48072284601F067
:101070003DFC2046FFF7E2FF2846044904F25912DE
:1010800001F042FC002384F8593238BD40A800002A
:1010900030B51546284615F8014B2F2C04D00A2CE4
:1010A00002D014F0DF0FF5D1904201D1002030BD05
:1010B0000A60027800219A420170F7D1013030BDF8
:1010C00010B5044600230360436083604C3005F094
:1010D0009EF994F84C302F2B27D104F14D02204675
:1010E0002146FFF7D5FF0246F8B12046211D2023F7
:1010F000FFF7CEFF0246C0B1A1680023023104EB26
:10110000810141F8043F20462023FFF7C1FFA36877
:10111000024604EB8301C96809B10133A360002AC8
:10112000EAD14FF0FF33C4F8CC30204610BD07B5EC
:10113000D0F8CC3001A95A1CC0F8CC2000EB8300B9
:101140000A22006906F06EF803B05DF804FB08B5EA
:10115000D0F8CC305A1CC0F8CC2000EB83000069DA
:1011600003F06BF908F0B4FF08BD01220270002201
:101170000A7041607047037813B100230370704711
:10118000436820221A7043680133436070470000AF
:1011900038B504460D46FFF7EEFF606803492A465E
:1011A00005F098F863681844606038BD44A80000F2
:1011B00038B504460D46FFF7DEFF606803492A464E
:1011C00005F088F863681844606038BD4AA80000DC
:1011D00038B50D460446FFF7CEFF284608F042FC1E
:1011E0000B4602460349606805F074F863681844CA
:1011F000606038BD4DA80000084B094A03601368C1
:10120000834202D14368136070475A68824201D01A
:101210001346FAE742685A60704700BFA8A800006A
:10122000C40700100048704774A8000010B50446B9
:10123000FFF7E2FF204601F0F5FF204610BD000059
:1012400038B5084B1C6864B1A068656808B101F046
:10125000FCFF237B1BB1236820465B6898472C4624
:10126000F1E738BDC407001038B50D46054B1C68C2
:101270003CB1237B1BB12846A168FFF789FF646856
:10128000F6E738BDC407001038B5104B04460360BC
:10129000002303730D4651B1084605F0C0F8013034
:1012A00001F0DAFF2946A06005F0B1F807E00C2054
:1012B00001F0D2FF0649A060224605F00BF8054B6D
:1012C00020461A681C60626038BD00BFA8A80000F4
:1012D00053A80000C4070010F8B5074605F09FF8B2
:1012E0000546094B1C686CB1A668394630462A464B
:1012F00005F09DF820B9304605F091F8A84201D0DC
:101300006468F0E72046F8BDC407001010B5044635
:10131000806808B101F099FF237B2BB12368204638
:10132000BDE810405B68184710BDFFF7EFBF000035
:1013300070B50C46B6B0014608B9002072E002A8AC
:10134000FFF7BEFE68462146FFF70FFF029E8EB9EB
:10135000354B1C682CB1A1686846FFF719FF64681B
:10136000F8E7324B1C6874B321686846FFF710FF3A
:10137000A468F8E73046FFF7AFFF054660B303689F
:101380009B689847039B04466BB9216821B1684666
:10139000FFF7FEFE0834F8E76368A3B128469847D4
:1013A0000446F2E70834206878B1039905F025F87F
:1013B0000028F7D1284602A963686A46984768461C
:1013C0002168FFF7E5FE01202CE06368002BB4D014
:1013D000284698470446E6E7144B1C68002CACD01E
:1013E0002068314605F009F8D0B9039D646855B905
:1013F0000834083454F8101C0029E4D06846FFF77C
:10140000C7FEF6E708342068002896D0294604F085
:10141000F4FF0028F6D1636802A869469847D2E72E
:10142000A468DBE736B070BDC4070010D000001020
:1014300000B599B072B63B49684601F0ABFA06A810
:10144000394901F0A7FA0CA8384901F0A3FA12A80B
:10145000374901F09FFA32E0069B039A0199013364
:10146000116059D00C9B0A9A0799013311604DD035
:10147000129B109A0D990133116041D0159B139A5C
:1014800096201A6001F05AFB009B013332D0069B74
:10149000049A01990133116026D00C9B099A07998F
:1014A000013311601AD0129B0F9A0D99013311600C
:1014B0000ED0169B139A96201A6001F03FFB009BFA
:1014C0000133C9D11B481C49242201F033FAC3E778
:1014D00018481949242201F02DFAEAE7154816495F
:1014E000242201F027FADEE712481349242201F0F2
:1014F00021FAD2E70F481049242201F01BFAC6E76F
:101500000C480D49242201F015FAB7E709480A49A9
:10151000242201F00FFAABE706480749242201F024
:1015200009FA9FE732C0092034C0092035C00920DC
:1015300037C00920B4A80000CCA800000C4B30B480
:101540009D689A682B46B2F1805F0CD2094AC43577
:1015500053F8044BAB4242F8044FF9D14FF080529C
:101560001346034CA260103043F8201030BC704783
:1015700000ED00E0FCFFFF0F036870B51B69002160
:10158000012204469847431C06460ED02368204695
:101590001B690021022298472368054631461B69D2
:1015A000204600229847284670BD70BD0248034976
:1015B000034A00F0BBBE00BF940A001002C009201D
:1015C00003C00920084A094B10B4026003F580717A
:1015D000002453F8042F824208BF1C608B42F8D1CC
:1015E0005DF8044B704700BF58A90000C407001005
:1015F000F0B50E4685B03549054604F0FEFE20B92B
:10160000334B1B6863B105B0F0BD2846314904F087
:10161000F4FE78B92E4B1B6843B1012005B0F0BD34
:101620000190FFF7C3FF019805B0F0BDFFF7BEFFC3
:101630000120E8E72846284904F0DFFE10B3274BD5
:10164000002402E00134402C21D053F8042F002A5A
:10165000F8D12B783A2B32D0294602A800F044FF6B
:1016600002A800F097FF90B102A800F079FF88B1BE
:1016700002A800F07FFF03464BB1194AE01C42F874
:101680002430C0E7124B1B68ABB10220BBE74FF020
:10169000FF30B8E702A800F053FF05460028F6D057
:1016A000036802A89F6800F049FF324601462846B9
:1016B000B8470346E0E7FFF779FF0220A3E7284693
:1016C000084902AA04F02AFE029BD5E734A90000CB
:1016D0008C09001044A900003CA90000C4070010B8
:1016E000C80700107CA9000002280ADD074AC31EB3
:1016F00052F82300002142F8231020B103685B68F0
:101700001847002070474FF0FF307047C80700109F
:10171000022812DC0E4B70B51B680C4616460BB93E
:10172000FFF744FFA51936B114F8011B094800F072
:101730004BFDAC42F8D1304670BD074B033853F82F
:10174000200010B103681B6818474FF0FF30704746
:101750008C090010940A0010C807001002280DDC44
:101760000C4B10B51B680C460BB9FFF71FFF0A485E
:1017700000F0E8FC01232070184610BD074B033829
:1017800053F8200010B103689B6818474FF0FF33EF
:10179000184670478C090010940A0010C807001002
:1017A000022807DD064B033853F8200020B10368F8
:1017B000DB681847012070474FF0FF30704700BFCB
:1017C000C8070010022807DD064B033853F8200035
:1017D00020B103681B691847002070474FF0FF30A5
:1017E000704700BFC8070010022808B504D84FF49E
:1017F00000534B60002008BD02F030FE0923036057
:101800004FF0FF3008BD00BF08B5012002F02CFEEC
:10181000704700BF704700BF08B5FFF7FBFFFFF739
:10182000F7FFBDE80840FEF7FFBF00BF074A136897
:101830001918EFF30880814202D2184611607047F0
:10184000034B0C221A604FF0FF307047E00000108D
:101850009C0A00100A4C08B523680546986802F0F7
:101860001FFF2368D86802F01BFF01F0DFF820B9E2
:1018700005B9FEE7FFF7DCFDFBE701F033F9F7E719
:101880004C010010002104F04CBC00BF02F07CBFF2
:101890000649074A074B9A42BEBF51F8040B42F86B
:1018A000040BF8E70448804704480047A8B3000049
:1018B000C800001098010010D51800002901000090
:1018C000FEE7FEE7FEE7FEE7FEE7FEE7FEE7FEE7F0
:1018D000FEE7FEE72B4A2023F0B4C2F8A031D2F88D
:1018E000A031980645D4274B002519460124AA208B
:1018F000552202270B26C3F80471C3F8A851C3F878
:10190000AC51C3F80C41C3F88460C3F88C00C3F831
:101910008C20C3F88040C3F88C00C3F88C20D1F829
:101920008830184A5B01FAD511460324AA205523B2
:10193000C2F88040C2F88C00C2F88C30D1F88830F0
:10194000104A13F0407FF9D00F4900230520C2F858
:101950000801C2F8C410C2F8C8311368F0BC23F4FF
:10196000704323F03A0343F4405343F03A031360C7
:101970007047D2F8A0315906B5D4D2F8A031590633
:10198000F7D5B0E700C00F40DE8728042DE9F04FFF
:10199000434B83B0D3F804809F685E6A9D6AB8F1B8
:1019A000000F22D09A46DFF800913E4A4FF0010B1B
:1019B00006E00BFA04F3B8EB0308CAF80C3014D0B5
:1019C000B8FA88F4C4F11F04E4B259F824000028DE
:1019D000EFD013680121019298470BFA04F3B8EB9A
:1019E0000308019ACAF80C30EAD1D7B1DFF8B890F1
:1019F000DFF8B0A0DFF8A88005E00123A340FF1ABC
:101A0000C8F80C300DD0B7FA87F4C4F11F04E4B263
:101A100059F824000028F0D0DAF800300221984765
:101A2000EBE7E6B1DFF88080DFF878901C4F04E048
:101A30000123A340F61AFB6211D0B6FA86F4C4F172
:101A40001F04E4B20F2C04F12003F1D858F823004E
:101A50000028EDD0D9F8003001219847E8E7DDB142
:101A6000114FDFF840800E4E04E00123A340ED1A31
:101A7000F36211D0B5FA85F4C4F11F04E4B20F2C5F
:101A800004F12003F1D857F823000028EDD0D8F84E
:101A9000003002219847E8E703B0BDE8F08F00BFAF
:101AA00080800240C8080010CC080010B1F1FF3F50
:101AB00028D0F8B504461E46134B21F01F0501F04F
:101AC0001F00124F21F05F0199423A60256060606B
:101AD00004D00F4800F03AFF256860680A4B0D49B2
:101AE0009D420CBF024600F120020B4BA260152064
:101AF00043F82260FFF722FD084B4FF400121A60F2
:101B00000020F8BD0846704700C00920C808001032
:101B10008CA900008D190000CC08001000E100E045
:101B20008268024B002143F822107047CC08001055
:101B300030B403682E4CA3421DD02E4DAB4212D1BF
:101B4000456801232C4CAB400129E3622BD02A4984
:101B500040680123002A33D130BC4A6B834022EA1B
:101B600003034B637047012916D0A3420AD0AB424E
:101B7000EDD030BC7047456801231F4CAB400129B4
:101B8000E36025D01C494068012392B130BC4A690A
:101B9000834013434B617047A34216D0AB42E8D158
:101BA000436801FA03F31449EAB10A6B13430B6368
:101BB000DFE74A69834022EA03034B6130BC704788
:101BC0004A6B834013434B63D3E7436801FA03F343
:101BD00009491AB10A6913430B61CAE70A6922EA83
:101BE00003030B61C5E70A6B22EA03030B63C0E73B
:101BF00000C0092040C0092080800240144B996831
:101C0000C1F3420101291BD0022917D1114AD16B1E
:101C1000013109D0916C106C086092F86E1019B9FE
:101C2000596821F001015960906B0A4B78B193F823
:101C30006E3023B1084B00211B681847704770476E
:101C4000044B986B0028FAD0034B1B681847704769
:101C500000000140940900109009001070B503685D
:101C6000284CA34247D03FDD274CA34229D004F59E
:101C70008044A34242D1254C082632BB01290BD017
:101C80004268234CC2EBC20204EBC20292F8364017
:101C900030325279D44213D1B1FA81F45D68012215
:101CA00002FA01F125EA01015960036864095B68E1
:101CB00002FA04F1194203D1164BB240C3F8802056
:101CC00070BD154C0726002AD8D05A68012505FAA0
:101CD00001F10A4376B25A6021463046FFF72EFCE6
:101CE0000C4BB5401D6070BDA4F58044A34205D1E6
:101CF0000A4C0526C1E70A4C0626BEE70024264604
:101D0000BBE700BF0000014000800940251D000026
:101D10009409001000E100E0911D0000F51D000095
:101D2000FD1B0000174B9968C1F3420101291FD028
:101D300002291BD1144AD2F8AC1001310BD0D2F8D1
:101D4000B810D2F8B000086092F8DE1019B95968DE
:101D500021F001015960D2F8A8000B4B80B193F833
:101D6000DE3023B1094B00211B68184770477047CC
:101D7000054BD3F8A8000028F9D0044B1B6818477E
:101D8000704700BF00C0094094090010900900107E
:101D9000154B9968C1F3420101291CD0022918D1C1
:101DA000124A516F01310AD0D2F88010906F08604A
:101DB00092F8A61019B9596821F001015960106F05
:101DC0000A4B78B193F8A63023B1094B00211B6868
:101DD000184770477047054B186F0028FAD0044B1E
:101DE0001B681847704700BF008009409409001025
:101DF00090090010144B9968C1F3420101291BD0CE
:101E0000022917D1114A5168013109D0116990682E
:101E1000086092F8361019B9596821F0010159602B
:101E200010680A4B78B193F8363023B1084B002183
:101E30001B68184770477047044B18680028FAD091
:101E4000034B1B681847704700C0004094090010FE
:101E5000900900102DE9F04F844A03688DB0934239
:101E60000B908B4600F3E680814A934200F0ED80B0
:101E700040F3CD807F4A934200F0A38002F5804278
:101E800093420CD17C4AD2F8AC1121F44021C2F823
:101E9000AC11D2F8AC1141F48021C2F8AC117749F1
:101EA0004FEA0B120968B1FBF2F402FB141208911D
:101EB000A4B2002A00F0A9805E46DA46089B4FF0E3
:101EC00001085A009900019300230A920991059490
:101ED00006920291CDF81080CDF81CB003935346C2
:101EE000DDF81C900027CA469946BB465FFA88F584
:101EF000CDF80080B846069F002F76DB029BB3FB2F
:101F0000FAF4009B64090134C4F34F0403EB0B0E95
:101F1000002C64D1BBF1000F00F0A5800224204604
:101F200000FB0EF0019BC000B3FBF0F00130C9EBE9
:101F3000500002F07EFAB04206DA48455FD006460D
:101F4000CDF80C80059404950BF1010B5FFA8BF82A
:101F5000A845CA44D0D3019B089ADDF800801344F9
:101F600001930A9A069B08F1010813440693099A03
:101F7000029BB8F1100F13440293079BCA464B44CF
:101F80000793ACD1039B049A059C43EA02150B9B73
:101F9000EDB21B681A7BC4F3072142F080021A736A
:101FA0000B9AE4B21368197113681C70136883F8F4
:101FB00028501268137B03F07F0313730DB0BDE844
:101FC000F08F2D4AD2F8AC1121F44031C2F8AC1197
:101FD000D2F8AC1141F48031C2F8AC115FE7BBF12B
:101FE000000F9CD0012C9AD898E7B7FBFAF4009B1D
:101FF00024090134C4F34F0403EB0B0E88E70B9B59
:1020000048EA0515EDB21B68C4E71025C2E7A2F542
:10201000804293427FF443AF174AD2F8A81121F0CF
:10202000C001C2F8A811D2F8A81141F04001C2F8CD
:10203000A81134E79B221248124900F07BFC0B9B4D
:102040000B4A1B6893427FF413AF0B4AD2F8A811D6
:1020500021F44071C2F8A811D2F8A81141F480719E
:10206000C2F8A8111BE70124204659E700C0094027
:10207000000001400080094000C00F40E400001053
:102080005CAA000078AA0000F8B55F1E012F054683
:102090000E46144604D915481549FB2200F04AFCA7
:1020A000053E032E1CD8042C14D8013CE4B2032CAA
:1020B0000DD8104B082153F824000001C2B246EAA3
:1020C00087060E4332432B68D2B21A73F8BD002242
:1020D0001146F4E708480649FE2200F02BFCE4E72D
:1020E00006480349FC2200F025FCDCE7E0AA0000DA
:1020F00078AA0000E0A900002CAB000008AB0000AB
:10210000436810B40448054CC3EBC30344F83320C0
:1021100001605DF8044B70479009001094090010AD
:1021200061B9436810B4064CC3EBC30304EBC303AB
:1021300083F836205DF8044BFFF790BDFFF78EBDA6
:10214000940900100268137DDB07FCD54368094938
:10215000C3EBC30301EBC303596810780131C0B26C
:1021600006D059699B680B60536843F001035360C4
:10217000704700BF940900104368124AC3EBC303C1
:1021800002EBC303D96901310BD0196B1B6A0A68D2
:102190001A4204D10368187DC0F3801070470020F4
:1021A00070470268127D920606D493F834000F2817
:1021B0008CBF002001207047002283F834200120CA
:1021C000704700BF9409001038B504460D462046FC
:1021D000FFF7D2FF0028FAD02368EDB21D706368C4
:1021E000054AC3EBC30302EBC30393F83420013267
:1021F00083F8342038BD00BF940900102DE9F04F5A
:1022000004464648256883B085420F4691460193AF
:1022100043D0D4F804A000255346414E4FEACA08E3
:10222000C3EBC303CAEB080E002006EBCE0E4FF043
:10223000FF3B06EBC3030146024683F83500CEF8A8
:102240001CB02046CEF804B0FFF708FD17B903B064
:10225000BDE8F08F3349484600F01CFC3249834604
:10226000019800F017FCBB1E012B37D9012FEED1CE
:10227000B9F1FF3FEBD0294B226807219B45117232
:1022800013D195B148462B7C264943F040032B746B
:1022900003B0BDE8F04F00F0CBBB2B7CD4F804A01A
:1022A00003F03F032B746368B7E7CAEB080806EB3B
:1022B000C800494601250430002200F08DFB20466D
:1022C0002A4663680021C3EBC30306EBC30686F806
:1022D000355003B0BDE8F04FFFF7C0BC019B0133A0
:1022E0000AD00E4B98420DD0CAEB080006EBC00096
:1022F00001991C3000F03CFB032FA8D1B9F1FF3F3E
:10230000B9D1A4E7002DEFD02B7C019843F08003D6
:102310002B74054900F08CFBEEE700BF0000014084
:1023200094090010BCA900002CAC00002DE9F04776
:102330000F46054608466149164600F0B9FB60495C
:102340000446304600F0B4FB0146204600F090FB06
:10235000411C044600F0AB805A4B2860984200F0C4
:10236000838053D9584B984276D003F580439842E6
:1023700006D1564AD2F8C43043F00073C2F8C430D4
:102380004FF0010984F808902B684FF00008C3F85B
:10239000048028464FF41651FFF75CFD42464B4639
:1023A00028460821FFF770FE3846444900F040FBFC
:1023B0003046434900F03CFB7A1C03D03846414686
:1023C00000F040FC731C03D03046002100F03AFCC2
:1023D0003C4B9C4250D025D93B4B9C4264D003F5EA
:1023E00080439C424BD103236B60394CC3EBC30346
:1023F0004FF0FF3604EBC30428463246334666608E
:10240000E6610021BDE8F047FFF7F8BEA3F5804381
:102410009842B5D12D4AD2F8C43043F00803C2F82F
:10242000C430ADE7A3F580439C4228D1284E4FF03D
:10243000FF34002169602246234628467460F46117
:10244000FFF7DCFE234B012429461C6022480822AA
:10245000BDE8F04702F0F4BB1C4AD2F8C43043F0A8
:102460008073C2F8C4308BE7184AD2F8C43043F006
:102470001003C2F8C43083E701236B60B5E76E68D0
:10248000134BC6EBC6064FF0FF3703EBC6063A46C2
:102490003B46284600217760F761FFF7AFFE0F4B00
:1024A0009C42CFD0BDE8F08702236B609DE70C48CB
:1024B0000C495C2200F03EFA2C6061E7C0AB0000E2
:1024C000F0A90000000001400080094000C00F405A
:1024D000940900108C090010940A001000C00040FC
:1024E000B0AB000078AA000038B500230360436059
:1024F0000A7804462F2A01D0204638BD4A78002A9F
:10250000FAD0481C20604D782F2D13D085B103469A
:1025100000E06AB15D1A013323601A782F2AF8D1DE
:1025200029460133236000F031FE6060204638BD4B
:102530002946F8E719460346F3E700BF00687047ED
:10254000436843B110B50446184600F03DFE01282B
:1025500003D1606810BD00207047002010BD00BF8F
:10256000406830B108B500F02FFEB0FA80F04009A5
:1025700008BD704743684BB110B50446184600F0DB
:1025800023FE28B9606818B1043810BD00207047D8
:10259000002010BD4068003018BF0120704700BF08
:1025A00038B50446044B00250560436000F086FB07
:1025B000024B20461C6038BDA0860100740A001042
:1025C00010B50446416000F0DFFB014B1C6010BDFC
:1025D000740A001038B5054D2A68824204D00446BA
:1025E000416800F0D1FB2C6038BD00BF740A0010B8
:1025F0002DE9F0411D460F461646804682B09DF8F3
:102600002040FFF7E7FF84F001040094404639467C
:1026100032462B4600F076FC281A18BF012002B083
:10262000BDE8F0812DE9F0411D460F461646804673
:1026300082B09DF82040FFF7CDFF84F001040094A4
:102640004046394632462B4600F0AAFB281A18BFEE
:10265000012002B0BDE8F08110B50446034B40F8FC
:102660001C3BFFF75DFA204610BD00BF58AC0000D0
:1026700010B50446044B40F81C3BFFF751FA2046C6
:1026800000F0D0FD204610BD58AC000001290346E3
:102690000CD0022906D1426D2AB1006C28B103F199
:1026A000440110477047036C5BB97047C26B2AB195
:1026B000806A0028F9D003F12C011047836A002BAF
:1026C000F3D0184738B504460D460D4A002380E87C
:1026D0000C008360C360036143618361C361036273
:1026E00043628362C36303644365064A23461C3026
:1026F000FFF7DCF9201D294600F03AF9204638BDE5
:1027000058AC00008D260000436810B50133044624
:1027100007D0A269A36812681A4214BF01200020E2
:1027200010BD034803492C2200F004F9F1E700BF73
:10273000B4A80000CCA8000000F062B8A0F14000EE
:10274000FFF7FABF00F060B8A0F14000FFF7FABF52
:1027500038B504461D4600F02DF8294604F1400026
:1027600000F090F8054B204603F1080103F1200228
:10277000543321602264636438BD00BF60AC000044
:102780004A1C02EB420200EBC202936853B101EB18
:102790004101C9004218D2681AB1014410311046F3
:1027A0001847704701EB410300EBC301CB68002BD6
:1027B000F7D0184770B504460B4E0023251D4FF483
:1027C0001650E06363602846A360E360236263629F
:1027D000A3632660FFF7AAFD284622460349FFF7B8
:1027E0008FFC204670BD00BFC8AC000081270000F0
:1027F00038B504460D460430FFF72CFBE56338BDC1
:102800000430FFF79FBC00BF10B50C460430FFF743
:10281000DBFC204610BD00BF00207047F8B58E18C5
:10282000B1420F460ED005460C4601E0A64207D045
:102830002B6828465B6A14F8011B98470130F5D1D4
:10284000E01BF8BD0C46FBE7F8B58E18B1420F4609
:102850000ED005460C4603E004F8010BA64205D055
:102860002B6828469B6A9847431CF5D1E01BF8BDAE
:102870000C46FBE70020704700207047002070479F
:102880000020704710B5044684B000F00FFC0B4BDD
:10289000002203F108013C3384E80A00626101A8C8
:1028A0002246074903F016FD064901A802F066F822
:1028B0006061FEF7E7FF204604B010BDD0AC000019
:1028C0007CA9000014AD000010B50446064B406919
:1028D00003F108023C3384E80C0001F02BFE204693
:1028E00000F0F8FB204610BDD0AC000070B50E46DD
:1028F00015460446406901F0D3FE30462946626918
:10290000BDE87040FEF7C2BF0EB430B5044682B0D9
:1029100005AB53F8045B4069019301F0C1FE294601
:102920006069019A02F06AFB02B0BDE8304003B072
:10293000704700BF10B40C461346014622460248B9
:102940005DF8044B00F002B818AD00000FB400B5FC
:10295000064A83B004AB53F8041B10681A46C068DB
:10296000019302F04BFB012001F07EFD4C010010B1
:1029700038B50D46044600F0FFF8013509D0204671
:10298000002100F015F92046BDE83840032100F091
:102990000BB938BD38B50D46044600F0EDF80135E9
:1029A0000FD0236801330DD02369626820461A6076
:1029B000012100F0FDF82046BDE83840022100F07A
:1029C000F3B838BD024803492422FFF7B3FFEBE711
:1029D000B4A80000CCA8000070B50D461646044609
:1029E00000F0CAF8013514D02368013312D066B95B
:1029F000236962681A602046012100F0D9F8204658
:102A0000BDE87040022100F0CFB8E36862681A6048
:102A1000F1E770BD034804492422FFF78BFF002E25
:102A2000E6D0F2E7B4A80000CCA8000000F066B839
:102A3000431C10B5044618D00B68581C04D10FE095
:102A400051F80C3F5A1C0BD09C42F9D120468968A2
:102A500000F0D0F82046BDE81040022100F0F2B8A6
:102A60000248BDE81040FFF771BF10BD4CAD00003B
:102A700088420AD0421C09D0013106D008B504486A
:102A8000FFF764FF4FF0FF3008BD704708467047FE
:102A900060AD00000B685A1C04D107E051F80C3FF0
:102AA0005A1C03D08342F9D14868704718467047D2
:102AB000421C0ED008B50B685A1C04D10AE051F82C
:102AC0000C3F5A1C06D09842F9D14868411C01D0ED
:102AD00008BD70470248FFF739FF4FF0FF30F7E7B6
:102AE00074AD000030B585B018246D4620462946E7
:102AF000ABBE0446204605B030BD00BF024B18688F
:102B000000F00100704700BFF0ED00E038B5054669
:102B100000F0A6FA044600F0A3FA001BA842FAD37C
:102B200038BD00BF08B5044907F030FC07F0F4FDDC
:102B3000BDE80840FFF7EABF002474494FF47A73F8
:102B400003FB00F0FFF7E2BF431C10B5044608D0BA
:102B50002046002100F04EF804F01F040120A040A0
:102B600010BD034803491522FFF7E4FEF0E700BF5C
:102B7000B4AD0000C8AD00004A1C016013D038B5E8
:102B80000C4605460846FFF7DFFF24F01F0101F160
:102B9000180401F11C0201F114036860A960EC60E3
:102BA0002A616B6138BD7047006800F04BB800BF08
:102BB00038B50368044601330D4610D045B1012DE8
:102BC00005D1A268636811680B43136038BD38BD36
:102BD000A2686168136823EA0103136038BD0348E3
:102BE00003492C22FFF7A6FEE8E700BFB4A80000C7
:102BF000C8AD000038B5431C04460D4618D004F19A
:102C00006040A0F51C2003099B0003F1804303F5FD
:102C1000303300F00F00196840000322824021EA9F
:102C200002021A601A68854045EA0201196038BD3F
:102C3000024803491522FFF77DFEE0E7B4AD00002E
:102C400030AE000038B5431C05460C462BD005F1CC
:102C50006040A0F51C2043099B0003F1804303F56D
:102C60003033996E00F01F02C4F3800505FA02F2BA
:102C700021EA02019966996E0A439A6695B9030999
:102C80009B0003F1804303F5303300F00F00196C13
:102C900040000322824021EA02021A641A6C844036
:102CA00014431C6438BD034803492022FFF742FE49
:102CB000CDE700BFB4AD000030AE0000F8B5064669
:102CC0000D46084628491446FFF7F2FE27490746F5
:102CD0002046FFF7EDFE01463846FFF7C9FE421CCD
:102CE0000346306039D0224A93422ED002F5882222
:102CF000934222D0A2F50422934216D01D4A1E49C7
:102D000012683C27120AA1FB0212402692095A615E
:102D100028461A6114499F611E60FFF789FE20460C
:102D2000BDE8F8401149FFF783BE1449D1F8C4202B
:102D300042F08002C1F8C420E0E71049D1F8C42075
:102D400042F08062C1F8C420D8E70C49D1F8C42011
:102D500042F40022C1F8C420D0E70948094963229F
:102D6000FFF7E8FD3368BEE794AE00004CAF00000B
:102D700000C00540E4000010632D3E0500C00F4078
:102D8000D0AE0000E4AE0000044B49001B680268AE
:102D90009B08B3FBF1F1516111617047E400001031
:102DA0002DE9F04304683C2507462420A561A6468A
:102DB0002060534D01E0013D02D026683607FAD568
:102DC000606820251028A56110D008280ED0102397
:102DD000082223604A4BA26101E0013B02D0226835
:102DE000D506FAD46FF00100BDE8F08341F001018F
:102DF0000820A1604249A06101E0013902D02568A4
:102E00002807FAD5616840290ED0102308222360D4
:102E10003B4BA26101E0013B02D02268D606FAD406
:102E20004FF0FF30BDE8F083581E0028D8BF4FF0A8
:102E3000000C1FDD844602F1FF3E00264FF004091E
:102E40004FF00808C4F800902D49C4F8188001E03C
:102E5000013902D025682D07FAD5A5686168502987
:102E60002CD1013686420EF8015F01D03C68E9E7BB
:102E7000D7F800E004210824CEF818102049CEF835
:102E8000184001E0013903D0DEF800402507F9D5EC
:102E9000DEF80840DEF8041058291DD0102308225F
:102EA000CEF80030164BCEF8182001E0013B11D0CF
:102EB000DEF80020D406F9D4BDE8F0831023082200
:102EC00023600F4BA26101E0013B02D02268D706CC
:102ED000FAD43046BDE8F08302F80C40079A5AB1A4
:102EE0003868102208210260054A816101E0013A38
:102EF00002D00168C906FAD41846BDE8F08300BFC5
:102F0000A186010070B404683C252420A561364DDB
:102F1000206001E0013D02D026683007FAD56068E4
:102F200020251028A56110D008280ED010230822D3
:102F300023602D4BA26101E0013B02D02268D6063E
:102F4000FAD46FF0010070BC704701F0FE01082058
:102F5000A1602549A06101E0013902D025682D0753
:102F6000FAD5616818290ED01023082223601E4B61
:102F7000A26101E0013B02D02268D006FAD44FF0F2
:102F8000FF3070BC7047002B13DD551E0020082653
:102F900015F8011F144AA160A66101E0013A02D0B0
:102FA00021680907FAD56268282A11D101309842B0
:102FB000EED1039A52B11022082122600A4AA1617F
:102FC00001E0013A02D02168C906FAD41846BAE7EE
:102FD000102308222360044BA26101E0013BB2D020
:102FE0002268D506FAD4AEE7A186010038B51249A9
:102FF000124B01241C60D1F8C430114A43F4000381
:1030000010480025C1F8C4301567036801F1437109
:1030100001F5F45103319B08A1FB03139B0C013B09
:10302000022151600420D36007495460FEF786FAFC
:10303000064B10221A6038BD00C00F40780A0010FD
:1030400000400940E4000010CD31000000E100E044
:10305000024B1B6803B17047FFF7C8BF780A001026
:1030600008B5044B1B680BB9FFF7C0FF024B98680B
:1030700008BD00BF780A001000400940034B98616A
:103080005A6942F001025A61704700BF004009408E
:10309000024A536923F0010353617047004009401D
:1030A000014B01221A6070470040094010B50446E8
:1030B000064B002240F8043B00F054F8044B204635
:1030C00003F10802343384E80C0010BD58A9000055
:1030D00088AF000010B50446064B03F108023433F4
:1030E000226040F8043F00F007F82046FEF76AFA35
:1030F000204610BD88AF0000094A8368026053B1C2
:10310000084B1A68824201D106E01A46536883428E
:10311000FBD143685360704742681A60704700BF34
:10312000D0AF00007C0A00100C4A836810B504463A
:10313000026053B10A4B1A68904201D10AE01A4664
:1031400053689C42FBD163685360204600F06AF8E4
:10315000204610BD42681A60F7E700BFD0AF0000FC
:103160007C0A001010B4074C0023027381600460D5
:10317000436019B1044B1A68186042605DF8044B53
:10318000704700BFD0AF00007C0A00100D4B70B537
:103190001C6806460D4614B911E064687CB1A0684D
:1031A0000028FAD031462A4603F041F90028F4D12C
:1031B000A06803F034F9A842EFD1204670BD00208A
:1031C00070BD00BF7C0A0010007B7047014800F012
:1031D00003B800BFECAF0000036870B5DB680546BC
:1031E00098476B685B6883B12A681C685368984786
:1031F000201A00286A680DDC5068116883685360E3
:103200000029F0D040688847EBE72B68BDE87040A4
:103210009B6818472B6852681B691068BDE87040AE
:10322000184700BF01F0F6BC10B5002814BF0446D3
:103230000124204601F0E6FC30B900F00FF808B98F
:1032400001F0F0F88047F4E710BDFFF7EBBF03464D
:103250000846194601F0F4B8FFF7E6BF024B1868BC
:10326000BFF35F8F704700BF880A00102DE9F04F51
:103270008BB01F4680468946164600F071F9DFF88C
:10328000D8A204469AF900300D46013304D03046E6
:10329000394600F085FF20B9204629460BB0BDE82D
:1032A000F08F4046494600F07BFF834660BB3046C6
:1032B00039460022002306F091FE0028ECD09AF94E
:1032C00000309E4C01229E4900208DE814005A1CBB
:1032D000CDF820B0CDE90289CDE90467CDE906013A
:1032E0000DD0022B0BD0684600F086FF002800F0BE
:1032F0009380089B1BB101F0B1F8089B0360DDE9E6
:1033000006010BB0BDE8F08F40464946002200237D
:1033100006F064FEF8B1304639460022002306F07C
:103320005DFE834600284ED084489AF90030012182
:10333000002200240025CDE90289CDE90467CDE90A
:103340000645019000910892002BCCD07C4B0022C6
:10335000CDE90623D3E72046294600F01BFF83462C
:1033600000285ED0204629460022002306F036FEC3
:10337000002891D04046494600F00CFF00288BD031
:103380003046394600F006FF002885D09AF9003013
:103390006A480421002200240025022BCDE902897D
:1033A000CDE90467CDE9064501900091089200F04F
:1033B0008880684600F020FF002800F08280089B8B
:1033C000002B9CD097E73046394600F0E3FE0028FA
:1033D0003FF462AF304639460022002306F008FE73
:1033E00000283FF459AF55499AF800300122CDF832
:1033F00020B0CDE90289CDE9046701910092002B4C
:103400003CD050490020022BCDE9060130D101F01B
:1034100025F821230360D2E701F020F8212303607F
:1034200067E74046494600F0B5FE00289AD030468E
:10343000394600F0AFFE002894D02046294600F01F
:10344000AFFE00BB3D4A9AF8004001230890CDE949
:103450000289CDE90467019200937CB1002000212C
:1034600002460B4606F07CFC022CCDE90601CED0CC
:10347000684600F0C1FE0028A1D1C8E70022002361
:10348000CDE90623F4E72D499AF900300322CDF85F
:1034900020B0CDE90289CDE9046701910092ABB972
:1034A000294D4FF060444046494600220023CDE9B3
:1034B000064506F09DFD50BB9AF90030022B7FF4C3
:1034C00078AF00F0CBFF2223036078E71F4D002484
:1034D0004046494600220023CDE9064506F088FD16
:1034E0000028E9D000221A4B3046394606F00EFB80
:1034F00004460D4600F088FE22462B4606F06EFD7F
:103500000028D9D10F4B0022CDE90623D4E70022B1
:103510000F4B3046394606F0F9FA04460D4600F0E6
:1035200073FE22462B4606F059FD0028C4D1094BF4
:103530004FF06042CDE90623BEE700BFF4AF0000C4
:103540000000F03F0000F0FFFFFFEF470000F07FBA
:103550000000E03FFFFFEFC7E800001000000000A0
:103560002DE9F04F144623F00047024657EA0400C5
:103570000E468FB01D469C46214634D06E4B26F039
:10358000004A9A459346B14626DC24D09F4223DC6C
:10359000694B9F4200F08F80B9F1000FC0F28F801D
:1035A0004FF0000879BB644B9F4200F0A580634B4D
:1035B0009F4267D0BCF1804F00F0E283604B9C4596
:1035C00021D1B9F1000F1EDB104631460FB0BDE826
:1035D000F04F00F015BD62B10AF1404000F58010D7
:1035E00050EA0B0007D10346544918460FB0BDE816
:1035F000F08F5745CCDD53480FB0BDE8F04F00F0D9
:10360000FDBD4FF0000810463146CDF808C00092CD
:1036100000F0BCFD009ADDF808C0BBF1000F20D01F
:103620004FEAD97909F1FF3958EA09037AD0464BB4
:103630009F4240F38F8003F104739F4240F3108454
:10364000424B9A4540F39283BCF1000F40F39283C2
:1036500037A1D1E900010B46024606F057FA0346AE
:10366000C3E7BAF1000F04D0344B29F0404E9E4519
:10367000D6D1BCF1000FC0F2B683B9F1000F08DB60
:103680000346B2E7BCF1000FC0F252841346314644
:10369000ABE70AF1404A0AF5801A58EA0A0340F0FB
:1036A0005E8402460B4606F07DF80B46024606F0A5
:1036B00057FB034699E700293FF46EAF8CE7244B94
:1036C0009F422CDCA3F154739F427FF769AF40F215
:1036D00013403B15834240F34B84C3F586630333A9
:1036E00021FA03F000FA03F38B427FF459AF00F0A4
:1036F0000100C0F1020855E70AF1404303F58013C9
:1037000053EA0B0300F03983104B9A4540F364836E
:10371000BCF1000FC0F22E832346294665E74FF027
:1037200002083FE7104631463346BCE7AFF300805E
:103730009C7500883CE4377E0000F07F0000F03F7D
:103740000000E03F48AD00000000E041FFFFEF3F18
:10375000FFFF3F43BAF5801F4FF0000205DACA4B66
:1037600006F0D4F98A466FF034024FEA2A53C74E66
:10377000CAF3130AA3F2FF334AF07F571344B2454A
:103780000C9347F4401740F3D083C14B9A4540F364
:1037900007840026B4460C9BA7F5801701330C93D1
:1037A0003946BC4B4FEACC0C6344D3E900AB5246DC
:1037B0005B46CDF834C0CDE9060105F0F3FF524673
:1037C0005B46CDE90801DDE9060105F0EDFF0246A3
:1037D0000B460020B04906F0C3FA02460B46DDE96D
:1037E0000801CDE90A2306F091F902460B46CDE91E
:1037F0000223CDE904237B1043F0005303F500239B
:1038000099190020002306460F460293DDE90223A2
:103810001046194632463B46CDE9000106F076F9DE
:1038200002460B46DDE9080105F0BCFF5246CDE932
:1038300008015B463046394605F0B4FF02460B46A8
:10384000DDE9060105F0AEFF02460B46DDE90001A9
:1038500006F05CF902460B46DDE9080105F0A2FF1F
:10386000DDE90A2306F052F9DDE90423CDE906017A
:103870001046194606F04AF902460B4606460F4620
:1038800006F044F96EA3D3E9002382468B46304606
:10389000394606F03BF96CA3D3E9002305F084FF19
:1038A00032463B4606F032F969A3D3E9002305F01E
:1038B0007BFF32463B4606F029F967A3D3E9002394
:1038C00005F072FF32463B4606F020F964A3D3E9C7
:1038D000002305F069FF32463B4606F017F962A364
:1038E000D3E9002305F060FF02460B4650465946D7
:1038F00006F00CF9DDE9042306460F46DDE9000178
:1039000005F052FFDDE9062306F000F932463B469A
:1039100005F04AFFDDE9006782468B4632463B46AA
:103920003046394606F0F2F800225C4BCDE908013A
:1039300005F03AFF52465B4605F036FF02980F4607
:103940000646DDE9000132463B4606F0DFF8324626
:103950003B46CDE90001DDE9060106F0D7F800227B
:10396000CDE906014D4B3046394605F01BFFDDE938
:10397000082305F017FF02460B465046594605F04E
:1039800011FFDDE9042306F0C1F802460B46DDE92C
:10399000060105F009FF82468B46DDE9000152462B
:1039A0005B4605F001FF32A3D3E9002302980F46DE
:1039B000064606F0ABF830A3D3E90023CDE90401B5
:1039C0003046394606F0A2F8DDE90023CDE90601CC
:1039D0003046394605F0E6FE02460B46504659464B
:1039E00005F0E0FE26A3D3E9002306F08FF8024697
:1039F0000B46DDE9060105F0D7FEDDF834C0284BA3
:103A0000CDF818C06344D3E9002305F0CDFECDE91D
:103A100000010C9806F014F806460F46DDE9040193
:103A2000204BDDF818C09C44DDE90023DCE900AB45
:103A300005F0BAFE52465B4636E000BFAFF30080A9
:103A4000EF4E454A287ECA3F65DBC9934A86CD3F83
:103A500001411DA96074D13F4D268F515555D53F69
:103A6000FFAB6FDBB66DDB3F033333333333E33F01
:103A7000000000E009C7EE3FF5015B14E02F3EBEF9
:103A8000FD033ADC09C7EE3F000040438E98030077
:103A900079B60B0018B000000000F03F00000840AD
:103AA00008B00000F8AF0000CDE906AB05F07CFEE1
:103AB00032463B4605F078FE029832463B46824647
:103AC0008B4605F06FFEDDE9062305F06BFEDDE9B0
:103AD000042305F067FE02460B46DDE9000105F010
:103AE00061FECDE9020108F1FF3858EA09030CBF75
:103AF000D54BD64B0022CDE904230023CDE9004568
:103B00000093DDE90067204632463B46294605F032
:103B100049FE52465B4605F0F9FFDDE90223804687
:103B200089462046294605F0F1FF02460B464046ED
:103B3000494605F039FE04460D46524630463946A0
:103B40005B46CDE9024505F0E1FF06460F462046FB
:103B50003B462946324605F027FEBD4B8246994238
:103B60008946884640F3138101F13F4303F5E003A2
:103B7000034340F0E581A0A3D3E90023DDE902017E
:103B800005F012FE324604460D463B465046494675
:103B900005F008FE02460B462046294606F046FA86
:103BA000002840F0CD814C462015A0F2FE304FF4A5
:103BB000801101414144C1F30A50A64CA0F2FF35E7
:103BC000C1F3130BC0F5826003302C414BF4801B12
:103BD00021EA040300224BFA00FB3946304605F087
:103BE000E1FD06460F46DDE902018BEAE87B0BEBBF
:103BF000D87B32463B464FEA0B5A05F0D5FD80A3F1
:103C0000D3E90023002420460D4605F07FFF32460D
:103C1000804689463B462046294605F0C3FD0246BC
:103C20000B46DDE9020105F0BDFD77A3D3E90023D2
:103C300005F06CFF76A3D3E9002306460F46204625
:103C4000294605F063FF02460B463046394605F02B
:103C5000ABFD06460F4632463B464046494605F018
:103C6000A3FD42464B4604460D4605F09BFD024629
:103C70000B463046394605F095FD2246804689467A
:103C80002B462046294605F041FF63A3D3E90023D4
:103C900006460F4605F03AFF61A3D3E9002305F07D
:103CA00081FD32463B4605F031FF5FA3D3E9002397
:103CB00005F07AFD32463B4605F028FF5CA3D3E9C8
:103CC000002305F06FFD32463B4605F01FFF5AA367
:103CD000D3E9002305F068FD32463B4605F016FFA8
:103CE00002460B462046294605F05CFD06460F4677
:103CF00032463B462046294605F008FF0022CDE922
:103D000000014FF080433046394605F04BFD024636
:103D10000B46DDE9000106F023F8424606460F4651
:103D20004B462046294605F0F1FE42464B4605F03B
:103D30003BFD02460B463046394605F033FD224630
:103D40002B4605F02FFD02460B4600203F4905F0AB
:103D500029FD8A44BAF5801F0246C0F227815346E6
:103D6000DDE9040105F0D2FE03463EE4BCF1000F9C
:103D7000FFF66EAC0023194637E40B46334934E4B2
:103D800033461046314605F0C1FE03462DE4324B62
:103D900021F000449C4240F3FA80304B0B44034333
:103DA0000CD132463B4605F0FDFC02460B46DDE9F0
:103DB000020106F027F900283FF4F6AE20A3D3E96C
:103DC0000023DDE9040105F0A1FE1DA3D3E90023D2
:103DD00005F09CFE034608E4BCF1000FCADA234656
:103DE00005F1004101E402460B460020174905F0A9
:103DF000B7FF42E4AFF30080FE822B654715973C86
:103E000000000000432EE63FEF39FAFE422EE63F67
:103E1000396CA80C615C20BED0A4BE726937663EC6
:103E2000F16BD2C541BDBB3E2CDE25AF6A56113FBA
:103E300093BDBE166CC1663F3E5555555555C53FA1
:103E400059F3F8C21F6EA5010000F0BF0000F03F5B
:103E5000FFFF8F40FFFF0F00FFCB904000346F3F0C
:103E6000634B9A4582DD634B9A453FF7EDAB0022E9
:103E7000604B05F097FC54A3D3E9002306460F4698
:103E800005F044FE52A3D3E90023CDE900013046FA
:103E9000394605F03BFE3246CDE902013B4630464D
:103EA000394605F033FE002282468B4630463946BD
:103EB000514B05F02BFE02460B4647A1D1E900010C
:103EC00005F070FC32463B4605F020FE02460B46EC
:103ED00000204A4905F066FC02460B46504659460A
:103EE00005F014FE3EA3D3E9002305F00FFE0246C1
:103EF0000B46DDE9020105F055FC06460F46DDE9FB
:103F0000000132463B4605F04FFCDDE9002300206E
:103F100082468B4605F046FC02460B463046394643
:103F200005F040FCCDE90201DDE50026B44637E4AA
:103F3000334600202F4905F013FF0346FFF755BB1A
:103F400029A3D3E90023DDE9040105F0DFFD26A361
:103F5000D3E9002305F0DAFD0346FFF746BBB8F1CD
:103F6000010F03467FF441AB01F10041FFF73DBB78
:103F700000297FF446ABC3F58263033347FA03F0AD
:103F800000FA03F3BB4217D08846FFF710BB1B4B68
:103F90009C423FF709AEDDE90023924693462EE6A8
:103FA0004FF480264FF0010CFFF7FABB5A4600F0A1
:103FB000BBF902460B46D3E600F00100C0F102084F
:103FC000FFF7F5BAAFF30080000000604715F73F38
:103FD00044DF5DF80BAE543E555555555555D53F0C
:103FE000FE822B654715F73F9C7500883CE4377EC1
:103FF000FEFFEF3F0000F03F0000D03F0000E03F39
:104000002DE9F041604E0C46B6460E407645054619
:104010000B4600F098800029024676DD5FEA215EBB
:1040200000F08180AEF2FF3EC3F313031EF0010FD8
:1040300043F480135ED100273C46D10F01EB4303CC
:104040004FEA6E0E520016204FF4001165189D4283
:104050004FEAD2764FEA420202DC5B1B6C180F4437
:10406000013806EB43034FEA5101EFD18446202685
:104070004FF000410AE0A34220D0D50F013E4FEAA5
:10408000510105EB43034FEA420220D09C420CEB66
:104090000105F0DA002D05EB010C09DBA0461B1B26
:1040A000954288BF03F1FF334446521B0844E4E7BE
:1040B000BCF1000FF2DB04F10108F0E7954217D8DC
:1040C000002D05EB010C48DB98460023ECE7134379
:1040D00015D140087B1003F17F5303F50013FA0755
:1040E00003EB0E57394648BF40F00040BDE8F08171
:1040F0001C46C2E7D10F01EB430352009BE7411C72
:1041000031D000F001031844E3E721F000460643F4
:10411000ECD079BB8E46D30AAEF1150E5205002BBA
:10412000F9D0DC0222D400215B00D80201F10101A8
:10413000FAD5C1F10100C1F1200422FA04F42343AD
:1041400086448A406EE702460B4605F0DFFC2A46AD
:10415000234605F029FBBDE8F081BCF1000FAADA87
:10416000A0460023A0E701373046B3E72024012012
:104170000021E2E702460B4605F014FB02460B461F
:1041800005F0EEFDB2E700BF0000F07F21F0004136
:10419000704700BF41F0004101F58010C00F70472B
:1041A00010B431F0004408D0114BA1F580129A42AE
:1041B00008D804205DF8044B704718B902205DF858
:1041C000044B704701F1FF41094B01F5E0019942B1
:1041D000EFD9B4F5801F01D20320EBE7054B9C42D9
:1041E00001D00020E6E7B0FA80F04009E2E700BF26
:1041F000FFFFDF7F0000F07F0020704700200149B3
:10420000704700BF0000F87FF0B5C1F30A5EAEF260
:10421000FF35132D83B002460B460C464FEAD1768C
:1042200007462EDC002D48DB3C49294101EA03000A
:1042300010432BD049080B4053EA02070CD04FF42F
:104240008023132D24EA010143FA05F444EA010412
:104250000CBF4FF0004700273149234601EBC6064B
:10426000D6E900453A462046294605F09DFACDE9B3
:104270000001DDE9000122462B4605F093FA03B068
:10428000F0BD332D06DDB5F5806F43D010461946DD
:1042900003B0F0BDAEF2134E4FF0FF3121FA0EF134
:1042A0000142F3D049080142D6D04FF0804320EAC2
:1042B000010143FA0EF70F43CEE721F0004101431D
:1042C000E4D0C3F3130141EA000CCCF1000141EA50
:1042D0000C0C13495C0C4FEA1C3C0CF4002C6404DD
:1042E00001EBC6014CEA0403D1E90045204629460A
:1042F00005F05AFACDE90001DDE9000122462B461E
:1043000005F050FA024621F0004141EAC67310461A
:104310001946BDE705F048FABAE700BFFFFF0F00F6
:1043200028B0000000000000F8B5C1F30A560446AA
:104330000D460B46174616BB21F00043034332D00F
:104340000022314B05F0E2FB304A044697420D460D
:104350000B4637DB40F2FE72C1F30A56363E3E444E
:10436000964215DD24A1D1E9000122462B4600F03A
:1043700051F821A3D3E9002305F0C8FBF8BD40F2B2
:10438000FF72964224D040F2FE723E449642E9DC2F
:10439000002E09DD23F0FF4323F4E00343EA065532
:1043A00020462946F8BDF8BD16F1350F15DA4CF256
:1043B00050339F42D6DC12A1D1E9000122462B46A0
:1043C00000F028F80EA3D3E9002305F09FFBF8BD09
:1043D00002460B4605F0E8F9F8BD23F0FF4323F44D
:1043E000E003363643EA0655204629460022084BAC
:1043F00005F08CFBF8BD00BF9C7500883CE4377E5F
:1044000059F3F8C21F6EA50100005043B03CFFFFF6
:104410000000903C03F0004321F0004243EA020117
:10442000704700BF08B5062001F038FF0120FDF7F6
:1044300011FA0028B8BF40427047002102F062BE66
:1044400038B5054604480C46134620B102202946DB
:104450002246AFF3008038BD00000000014B186811
:10446000704700BF4C01001008B5074B044613B15C
:104470000021AFF30080054B1868836A03B19847A9
:104480002046FDF7E7F900BF0000000098B00000EB
:1044900070B505460C4609B9002070BD18B1836996
:1044A0000BB900F0BFF9204B9C4201D16C6808E0C9
:1044B0001E4B9C4201D1AC6803E01D4B9C4208BFDF
:1044C000EC68B4F90C30002BE6D02846214600F009
:1044D00039F8236B064633B12846216A98470028ED
:1044E000B8BF4FF0FF36A3891B0603D528462169C4
:1044F00000F0BAFB616B41B104F14403994202D070
:10450000284600F0B1FB00236363A16C21B128466B
:1045100000F0AAFB0023A36400F0EEF90023A381BE
:1045200000F0EBF9304670BD38B0000058B0000024
:1045300078B00000024B01461868FFF7A9BF00BF22
:104540004C0100108A892DE9F041054610070C4600
:1045500057D44B68002B02DC0B6C002B18DDE66A8D
:10456000B6B102F48052002392B22F682B600AB1D8
:10457000626D10E0216A28460123B047411C0246C3
:1045800009D12B683BB11D2B01D0162B46D12F60D2
:104590000020BDE8F081A3895B0705D56368D21AC6
:1045A000636B0BB1236CD21AE66A00232846216A9A
:1045B000B047461CA38905D12A681AB11D2A01D02B
:1045C000162A19D1002262602269D904226004D51A
:1045D000421C01D12B6803B96065616B2F60002913
:1045E000D6D004F14403994202D0284600F03CFBA7
:1045F00000206063BDE8F08143F04003A381BDE883
:10460000F0810F69002FC3D093070E680CBF4B6970
:104610000023C7EB06080F608B6012E0A3894FF000
:10462000FF3043F04003A381BDE8F0812846216AB2
:104630003A464346A66AB0470028EFDD0744C0EB80
:104640000808B8F1000FF1DCA2E7000038B50B69EB
:1046500005460C46DBB118B183690BB900F0E2F8EE
:104660000C4B9C4201D16C6808E00B4B9C4201D181
:10467000AC6803E0094B9C4208BFEC68B4F90C300D
:104680002BB128462146BDE83840FFF75BBF00202C
:1046900038BD00BF38B0000058B0000078B000004E
:1046A000014620B9044B0549186800F01BBA044BB9
:1046B0001868FFF7CBBF00BF98B000004D46000060
:1046C0004C010010012A2DE9F04781460E46904624
:1046D0001C4602DC0020BDE8F08718B183690BB9E5
:1046E00000F0A0F8254B9C4202D1D9F804400AE022
:1046F000234B9C4202D1D9F8084004E0214B9C4254
:1047000008BFD9F80C40374608F1FF38656845B94D
:104710004846214601F03EFC10B1B74229D1D9E705
:104720006568454528BF4546D4F800A00A21504693
:104730002A4600F077FA636868B10130CAEB0005D9
:104740005B1B84E80900514638462A4600F078FA97
:1047500000237B550FE05B1B6360236838462B44C6
:10476000236051462A4600F06BFAB8EB05082F4447
:10477000CCD100233B703046BDE8F08738B0000054
:1047800058B0000078B0000030B505460C4613461E
:10479000034A294610682246BDE83040FFF792BF21
:1047A0004C010010014900F09DB900BF4D460000CA
:1047B00010B5044600230360436083608181436633
:1047C000C28103614361836119465C30082200F0B5
:1047D00042FA054B24626362044BA362044BE3621A
:1047E000044B236310BD00BF71630000976300009A
:1047F000CF630000F363000070B568234D1E5D4376
:104800000E4605F1740100F073FA044640B1002130
:1048100080E842000C30A06005F1680200F01BFA4D
:10482000204670BD836910B5044633BB8364C364FE
:104830000365124B124A1B688262984204BF01232F
:10484000836100F01FF86060204600F01BF8A06054
:10485000204600F017F80421E06000226068FFF7AE
:10486000A7FFA06809210122FFF7A2FFE06812213B
:104870000222FFF79DFF0123A36110BD98B0000045
:10488000A5470000F8B51B4B07461E68B36913B96E
:104890003046FFF7C7FF4836B4687368013B04D45D
:1048A000B4F90C5075B16834F8E733682BB9384661
:1048B0000421FFF7A1FF306008B13668ECE70C2354
:1048C0003B60F8BD4FF6FF73E3810123A38165666A
:1048D0002560A560656025616561A56104F15C00E6
:1048E0002946082200F0B7F96563A563A564E5646D
:1048F0002046F8BD98B0000070477047F7B50F46E6
:10490000114601AA054603F079FC064608B90020C5
:1049100029E02846FFF7B6FF04460028F7D02846CE
:104920003946019A4FF4DB7301F018FB002806DAD0
:104930000025FFF7E1FFA581FFF7DFFFE7E70B4B5E
:10494000E08163620A4BA681A3620A4B2462E362A0
:10495000094B2363F30505D528462146002202238F
:1049600000F016F8204603B0F0BD00BF71630000F0
:1049700097630000CF630000F363000003460A461C
:10498000024908681946FFF7B9BF00BF4C01001083
:1049900000F000B82DE9F8430C4690461E46054647
:1049A00018B183690BB9FFF73DFF3D4B9C4201D124
:1049B0006C6808E03B4B9C4201D1AC6803E03A4B89
:1049C0009C4208BFEC68A38903F48473B3F5847F29
:1049D00003D128462146FFF739FEE76A0FB91D23A8
:1049E0002BE0012E04D0022E2BD056B3162324E048
:1049F00028462146FFF72AFEA28902F4805292B28D
:104A00000AB1606D05E0216A28463346B847411C6B
:104A100014D0A3895A0706D56368C01A636B4BB1DB
:104A2000236CC01A06E01B0704D5236813B1226962
:104A30009B1A18448044002603E02B604FF0FF3996
:104A40002BE023691BB92846214600F08FF8284641
:104A50002146FFF7FBFD81460028EFD12846216A59
:104A600042463346B8470130E8D0616B41B104F1AA
:104A70004403994202D0284600F0F6F8002363630D
:104A8000236900212360A389616023F40263A38169
:104A900004F15C00082200F0DEF84846BDE8F88327
:104AA00038B0000058B0000078B000002DE9F041A7
:104AB000884600F1480400268CB1A5686768013F6C
:104AC0000BD4AB89012B06D9B5F90E30013302D0D6
:104AD0002846C04706436835F1E72468ECE73046CE
:104AE000BDE8F0812DE9F8438046894600F148048D
:104AF000002694B1A5686768013F0CD4AB89012BEF
:104B000007D9B5F90E30013303D040462946C847CE
:104B100006436835F0E72468EBE73046BDE8F883E4
:104B20000E4B70B51E460E4C0025E41AA410A5428B
:104B300004D056F8253098470135F8E705F022FEF5
:104B4000084B094C1E46E41AA4100025A54204D0C7
:104B500056F8253098470135F8E770BD8C010010F4
:104B60008C0100108C01001094010010F0B58B89AD
:104B700091B09D0706460C4625D4B1F90E100029C8
:104B800008DAA389002513F0800F14BF40274FF4E3
:104B900080670DE001AA03F069FB0028F1DB029DAC
:104BA0004FF4806705F47045A5F500514D424D4125
:104BB0003046394600F09CF860B9A3899A051DD4A7
:104BC00043F00203A38104F147032360236101231F
:104BD000636113E00A4BB362A389206043F0800352
:104BE000A381206167614DB13046B4F90E1003F026
:104BF0005BFE18B1A38943F00103A38111B0F0BD9E
:104C0000A5470000024B0146186800F071B800BFCC
:104C10004C010010024B0146186800F025B800BF97
:104C20004C01001010B5C9B202449042034605D0B1
:104C30001C7801308C42F8D1184610BD002010BD00
:104C400010B5431E0A44914204D011F8014B03F8F9
:104C5000014FF8E710BD03460244934202D003F827
:104C6000011BFAE77047000030B500293CD051F82D
:104C7000042C0B1F1D49002AB8BF9B180A680C465C
:104C800012B95A600B6030BD93420DD219685818A2
:104C9000904201BF5A5852181A60426823605A6005
:104CA00030BD994203D80A4651680029F9D11468E9
:104CB00015199D420AD11B682344D01888421360FD
:104CC00012D10868034413604B680CE002D90C232E
:104CD000036030BD1C681819884201BF0868496824
:104CE000001918605960536030BD00BF900A001071
:104CF00070B5CC1C24F0030408340C2C38BF0C24F1
:104D0000002C064603DA0C233360002070BD8C4271
:104D1000F9D3204A136810461946A1B10A68121B3C
:104D20000ED40B2A03D90A608B188C501FE08B42DB
:104D30000BBF5A684A6802605A6018BF0B4616E0FB
:104D40000B464968E9E7144D2B681BB9304601F062
:104D5000A7F928603046214601F0A2F9421C03461B
:104D6000D1D0C51C25F0030585420AD11C6003F192
:104D70000B001A1D20F00700821A0AD051429950E8
:104D800070BD3046E91A01F08BF90130BBD02B46DB
:104D9000ECE770BD900A00108C0A0010936810B503
:104DA000013B002B936009DA9469A34202DBCBB28A
:104DB0000A2B03D1BDE8104002F0F8BA1368581C62
:104DC00010601970C8B210BDF8B506460F461446FB
:104DD000D518AC4208D0304614F8011B3A46FFF70C
:104DE000DDFF431CF5D100E00020F8BD2DE9F043C4
:104DF0009DB00D4690460393064618B183690BB9E2
:104E0000FFF710FD754B9D4201D1756808E0744BAA
:104E10009D4201D1B56803E0724B9D4208BFF56821
:104E2000AB891C070AD52B6943B1002309932023C2
:104E30008DF8293030238DF82A3041E0304629465C
:104E400002F01AFB0028F0D04FF0FF30C2E0039AC6
:104E50000134111D12680391002ABBBF524243F076
:104E6000020307920792B8BF049323782E2B7BD0BE
:104E7000DFF88081217840460322FFF7D3FE38B166
:104E8000049AC8EB00004023834013430493013489
:104E900021785548062204F101088DF82810FFF703
:104EA000C1FE002800F08580504B002B78D1039B79
:104EB000073323F0070308330393099B3B4409930B
:104EC00043461C4613F8012B1AB9B4EB08090ED05F
:104ED00002E0252AF5D1F8E73046294642464B46FE
:104EE000FFF772FF013070D0099B4B440993237880
:104EF000002B6AD000234FF0FF32049307930592F2
:104F000006938DF853301A9304F101084446DFF8F4
:104F1000E890217848460522FFF784FE08F1010851
:104F2000049B30B1C9EB000001228240134304937B
:104F3000ECE7D80644BF20228DF85320190744BF60
:104F40002B228DF8532022782A2A80D023460799D5
:104F50001C4622780133303A092A03D80A2000FB84
:104F60000121F5E7079180E763782A2B0AD1039B9B
:104F700002341A1D1B680392002BB8BF4FF0FF3399
:104F8000059375E7611C00220C4623780131303B04
:104F9000092B03D80A2000FB0232F5E7059267E7E8
:104FA00003AB0093304604A92A46114B00F0C4F825
:104FB00007E003AB0093304604A92A460C4B00F0EF
:104FC00077FB421C07467FF478AFAB895B063FF561
:104FD0003BAF09981DB0BDE8F08300BF38B00000BA
:104FE00058B0000078B00000A6B0000039510000B1
:104FF000C94D0000A2B000009CB0000030B50546CD
:105000000C461346034A294610682246BDE8304044
:10501000FFF7ECBE4C0100102DE9F0471E4688B0AA
:10502000149F002BB8BF06F10043129927F0200708
:10503000B6BF1E4600232D23462F1446109DDDF8D3
:105040004CA00B7003D0452F03D1013501E00323A1
:1050500000E002238DE8280406AB039307AB04931A
:105060002246334602F010FB472F804602D1119BA7
:10507000DB0726D5462F08EB050911D198F800303B
:10508000302B0AD1204631460022002304F0A6FF2F
:1050900018B9C5F10105CAF80050DAF80030994492
:1050A000204631460022002304F098FF08B1CDF8D5
:1050B0001C90079B4B4504D25A1C079230221A7051
:1050C000F7E74046079B159AC8EB0303136008B047
:1050D000BDE8F087034673B50029B8BF494203F81D
:1050E000022BB4BF2D222B22092942701ADD0DF1AB
:1050F000070426460A2291FBF2F502FB1511092D41
:1051000001F1300104F8011D2946F3DC3031651E40
:1051100004F8011CB5421A460AD215F8012B03F80F
:10512000012BF7E71A463024214402F8024B59704C
:10513000101A02B070BD00002DE9F04F91B08B46FF
:1051400015461E461A9F044603F0BEFBD0F800A089
:10515000504601F064F900230E933B680990073331
:1051600023F0070303F108029BF818803A60D3E9A3
:105170000023CBE91223DBE91201FFF711F8012824
:10518000DBE9120119D10022002304F031FF10B134
:105190002D238BF84330A04BA04FB8F1470F88BFA9
:1051A0001F460323CBF81030DBF8003023F0040354
:1051B000CBF800304FF00009A1E0FEF7F1FFDBF87B
:1051C000003048B9964A974FB8F1470F88BF174645
:1051D0000322CBF81020E9E7DBF80420DBE9120119
:1051E000571CCDE90A0101D1062209E0B8F1670F89
:1051F00002D0B8F1470F05D1002A40F0C781012243
:10520000CBF80420DBF8042043F480638DE80C0025
:10521000CBF800300DF1330302930DAB03930EABCB
:10522000059300230693CDF81080DDE90A2320467C
:10523000FFF7F2FE08F0DF03472B07460AD10D9B6C
:10524000D81C03DBDBF80420934237DDA8F1020809
:105250005FFA88F8B8F1650F0D9915D80139424603
:105260000BF150000D91FFF735FF0E9A8146831820
:10527000012ACBF8103003DCDBF80020D10738D549
:105280000133CBF8103034E0B8F1660F18D10029A3
:10529000DBF8043009DDCBF810101BB9DBF8002077
:1052A000D20721D501330B441CE01BB9DBF80020E9
:1052B000D00701D5023315E0012313E04FF0670852
:1052C0000D9B0E9A934207DBDBF80020CBF81030E1
:1052D000D10709D5013305E0002BD4BFC3F1020388
:1052E00001231344CBF810300D9B4FF00009CBF88D
:1052F00058309DF8333013B12D238BF8433000968E
:10530000204659460FAA2B4600F05CF9013002D125
:105310004FF0FF3052E1DBF800305A0505D420464B
:1053200029463A46DBF8103008E1B8F1650F40F243
:10533000D080DBE912010022002304F04FFE50B3BD
:1053400020462946384A0123B0470130E0D00E9B61
:105350000D9A9A4209DBDBF80030D80705D4DBF858
:1053600000309F0700F1108107E120462946524690
:10537000099BB0470130CBD000270E9B013B9F42D9
:10538000EDDA204629460BF11A020123B04701301D
:10539000BED00137F1E70D9B002B29DC20462946C2
:1053A000214A0123B0470130B2D00D9B2BB90E9B8F
:1053B0001BB9DBF80030D907D1D520462946524623
:1053C000099BB0470130A3D04FF000080D9B204649
:1053D0005B429845294608DA0BF11A020123B047CF
:1053E000013095D008F10108F0E73A460E9BA5E0A0
:1053F000DBF858200E9B9A42A8BF1A46002A914615
:1054000002DC4FF000081CE0204629463A464B4695
:10541000B0470130F5D17BE7B1B00000ADB000007E
:10542000B9B00000B5B0000006B100002046294622
:105430000BF11A020123B04701303FF469AF08F1C4
:105440000108DBF85830B9F1000FB4BF1A46C9EBB8
:1054500003029045EADB07EB03080D9A0E9B9A4284
:1054600010DBDBF80030DA070CD40E9A1744C8EBD7
:1054700007030D9FD21B9342A8BF1346002B1F4664
:1054800008DC0EE0204629465246099BB047013011
:10549000EBD13DE7204629464246B04701303FF474
:1054A00037AF4FF000080AE0204629460BF11A02F8
:1054B0000123B04701303FF42BAF08F101080D9AEA
:1054C0000E9B002FA3EB0203A8BFDB1B9845EBDB71
:1054D00045E70E9A012A01DCDB0736D5204629462E
:1054E0003A460123B04701303FF412AF2046294627
:1054F0005246099BB04701303FF40AAFDBE9120185
:105500000022002304F06AFDE8B90E9B20462946DC
:105510007A1C013B1DE0204629460BF11A020123AB
:10552000B04701303FF4F4AE01370E9B013B9F4280
:10553000F1DB204629464B460BF15002B0470130C3
:105540007FF40DAFE4E60027EFE7204629463A4610
:105550000123B0470130ECD1DAE6204629460BF1B1
:1055600019020123B04701303FF4D2AE0137DBF816
:105570000C300F9A9B1A9F42EFDBDBF80C000F9B5D
:105580009842B8BF184619E00027F0E743F480635B
:105590008DE80C00CBF800300DF1330302930DAB16
:1055A00003930EAB059300230693CDF8108020469D
:1055B000DDE90A23FFF730FD074640E611B0BDE8FC
:1055C000F08F00BF2DE9F84391461F468A680B69AA
:1055D00006469342B8BF1346C9F8003091F84320FD
:1055E0000C46DDF8208012B10133C9F80030236881
:1055F000990642BFD9F800300233C9F80030256857
:1056000015F006051CD094F843302268003318BF0B
:10561000012392061FD5E118302081F843005A1C5F
:1056200094F845102244023382F8431013E03046C8
:10563000394604F119020123C047013007D0013572
:10564000E368D9F800209B1A9D42F0DBDBE74FF0BE
:10565000FF30BDE8F8833046394604F14302C047C5
:105660000130F4D02268D9F80050E36802F0060255
:10567000042A08BF5D1B2269A3680CBF25EAE575F3
:1056800000259342C4BF9B1AED184FF00009A945AD
:105690000ADA3046394604F11A020123C0470130C4
:1056A000D5D009F10109F2E70020BDE8F883000038
:1056B0002DE9FF410C461746227E98466E2A064683
:1056C0000A9B01F1430100F0B08012D8632A23D075
:1056D0000AD8002A00F0BD80582A40F0CC8084F817
:1056E0004520DFF804E257E0642A1ED0692A1CD066
:1056F000C1E0732A00F0B18009D86F2A2ED0702A39
:1057000040F0B980226842F0200222603FE0752A12
:1057100024D0782A3BD0AEE01A6804F14205111D6E
:105720001960136884F84230A9E020681A6810F004
:10573000800F02D0101D186008E010F0400F02F139
:105740000400186002D0B2F9003000E01368002BAA
:105750003EDA2D225B4284F8432039E020681A6843
:1057600010F0800F02D0101D186007E010F0400FFD
:1057700002F10400186001D0138800E01368227E53
:10578000DFF864E16F2A0CBF08220A221CE07822AD
:10579000DFF858E184F845202268186812F0800F7D
:1057A00000F104051D6003D1550601D5038800E012
:1057B0000368D00744BF42F0200222601BB9226870
:1057C00022F0200222601022002084F8430002E030
:1057D000DFF814E10A226568002DA8BF2068A560E3
:1057E000A4BF20F00400206003B965B10D46B3FBEF
:1057F000F2F002FB10331EF8033005F8013D0346BA
:105800000028F4D100E00D46082A0BD12368DA07FE
:1058100008D5236962689A42DEBF302305F8013C4F
:1058200005F1FF35491B21612EE025681A6815F046
:10583000800F606903D0151D1D60136808E015F026
:10584000400F02F104051D60136801D0188000E0CC
:105850001860002323610D4616E01A68111D1960B7
:105860001568002128466268FFF7DCF908B1401B83
:105870006060636804E004F1420584F8422001237B
:105880002361002384F84330CDF800803046214660
:1058900003AA3B46FFF796FE013002D14FF0FF30DE
:1058A0001FE0304639462A462369C0470130F5D00B
:1058B00023689B0705D4E068039B9842B8BF18464D
:1058C0000FE00025E368039A9B1A9D42F3DA304605
:1058D000394604F119020123C0470130DED00135F9
:1058E000F0E704B0BDE8F081BDB00000CEB000002C
:1058F0002DE9F04F99468B6815465A1EB2F5AE7FDA
:1059000082BF6FF4AE7203EB020C40F25D130F46E0
:1059100088BF8B600B684FF0000B43F4F06347F8CF
:105920001C3B06460C46B8465A46DA4687B098BF36
:105930004FF0000CCDF80CB0CDF808B0CDF804B0A5
:10594000A168002900F0EC802B681B78492B70D0EF
:1059500016D8392B0DD8312B40D22D2B46D002D85A
:105960002B2B43D0DCE02E2B00F09280302B23D069
:10597000D6E0452B00F09580462B77D0412B0CE0EC
:10598000652B00F08E800AD8542B75D002D84E2B90
:1059900034D0C5E0592B75D0612B46D0C0E06E2BBA
:1059A0002CD004D8662B61D0692B42D0B8E0742B80
:1059B00062D0792B66D0B3E0206810F4807F0DD0E0
:1059C00020F0800020600AF1010ABCF1000F00F015
:1059D0008A8001310CF1FF3CA16084E012EB0B0FD7
:1059E00040F09E80216821F4C07105E0216808061E
:1059F00040F1968021F08001216070E06AB9BAF12F
:105A0000000F0CD1216801F4E060B0F5E06F06D121
:105A100021F4F0612160012261E0022A5ED0BBF135
:105A2000010F1ED0BBF1040F1AE0012A78D1022227
:105A300055E0BBF1000F0ED1BAF1000F73D1216810
:105A400001F4E060B0F5E06F71D121F4F061216004
:105A50004FF0010B43E0BBF1030F02D0BBF1050F88
:105A60005ED10BF1010B5FFA8BFB38E0BBF1020F4B
:105A700056D14FF0030B32E0BBF1060F50D14FF07F
:105A8000070B2CE0BBF1070F4AD14FF0080B26E0C3
:105A90002168880544D521F420712160CDF804A047
:105AA0001DE0216801F4A060B0F5806F04D04805C6
:105AB00036D5BAF1000F3AD0880558BF019821F4C5
:105AC000F06158BFC0EB0A0041F4C0715CBF0290A6
:105AD000CDF80C8021604FF0000A00E0032288F826
